:100000000C94DF000C94E2040C94BB040C940701E4
:100010000C9407010C9407010C9407010C94070140
:100020000C9407010C9407010C9407010C94070130
:100030000C9407010C9407010C9407010C94070120
:100040000C9471040C9407010C9407010C940701A3
:100050000C9407010C9407010C9407010C94070100
:100060000C9407010C94070100407A10F35A00A089
:10007000724E18090010A5D4E80000E87648170071
:1000800000E40B54020000CA9A3B000000E1F505B1
:10009000000080969800000040420F000000A086FB
:1000A00001000000102700000000E803000000002D
:1000B0006400000000000A000000000001000000D1
:1000C00000002C76D888DC674F0823DFC1DFAE59EB
:1000D000E1B1B796E5E3E453C63AE651997696E87E
:1000E000E6C28426EB898C9B62ED407C6FFCEFBC02
:1000F0009C9F40F2BAA56FA5F490055A2AF75C932D
:100100006B6CF9676DC11BFCE0E40D47FEF520E662
:10011000B500D0ED902E0300943577050080841E45
:10012000080000204E0A000000C80C333333330FA0
:10013000986E12831141EF8D2114893BE65516CF3D
:10014000FEE6DB18D1844B381BF77C1D901DA4BB49
:10015000E424203284725E228100C9F124ECA1E5FE
:100160003D2700000000240027002A0000000000B6
:10017000250028002B000000000023002600290095
:10018000040404040404040402020202020203033D
:100190000303030301020408102040800102040845
:1001A00010200102040810200000000800020100D5
:1001B00000030407000000000000000009051124EE
:1001C0001FBECFEFD8E0DEBFCDBF11E0A0E0B1E0B1
:1001D000EEEEFAE102C005900D92AE32B107D9F70A
:1001E00021E0AEE2B1E001C01D92AB39B207E1F708
:1001F00010E0CFEDD0E004C02197FE010E946A0D0F
:10020000CE3DD107C9F70E944F050C94750D0C9493
:100210000000E0918301F09184010190F081E02DD4
:100220006FED83E891E00994CF92DF92EF92FF9215
:100230000F931F93CF93DF936C017A018B01C0E082
:10024000D0E0CE15DF0589F0D8016D918D01D60182
:10025000ED91FC910190F081E02DC6010995892B6B
:1002600011F47E0102C02196ECCFC701DF91CF913E
:100270001F910F91FF90EF90DF90CF900895833002
:1002800081F028F4813099F08230A1F00895873010
:10029000A9F08830B9F08430D1F4809180008F7D4E
:1002A00003C0809180008F7780938000089584B58B
:1002B0008F7702C084B58F7D84BD08958091B00092
:1002C0008F7703C08091B0008F7D8093B000089538
:1002D000CF93DF93282F30E0F901E855FE4F84914A
:1002E000F901EC56FE4FD491F901E058FE4FC4914C
:1002F000CC2391F081110E943F01EC2FF0E0EE0F32
:10030000FF1FEA58FE4FA591B491EC91ED2381E0D7
:1003100090E021F480E002C080E090E0DF91CF9196
:1003200008951F93CF93DF93282F30E0F901E8550C
:10033000FE4F8491F901EC56FE4FD491F901E0583B
:10034000FE4FC491CC23C9F0162F81110E943F01AA
:10035000EC2FF0E0EE0FFF1FE459FE4FA591B49192
:100360008FB7F894111105C09C91ED2FE095E9230A
:1003700002C0EC91ED2BEC938FBFDF91CF911F91D9
:100380000895CF93DF9390E0FC01EC56FE4F24914B
:10039000FC01E058FE4F8491882361F190E0880FC2
:1003A000991FFC01EE59FE4FC591D491FC01E4590F
:1003B000FE4FA591B491611109C09FB7F89488814F
:1003C000209582238883EC912E230BC0623061F448
:1003D0009FB7F8943881822F809583238883EC918E
:1003E0002E2B2C939FBF06C08FB7F894E8812E2B3D
:1003F00028838FBFDF91CF9108950895CF93DF9326
:10040000EC0160E08E810E94910161E08E810E948A
:10041000910160E08E810E9491018BE891E001974B
:10042000F1F7DF91CF910895CF92DF92EF92FF9293
:100430000F931F93CF93DF937C016C0187E0C80E6D
:10044000D11CC0E0D0E0062F10E0B8010C2E02C095
:10045000759567950A94E2F76170F60181916F01D5
:100460000E9491012196C430D10579F7C701DF912F
:10047000CF911F910F91FF90EF90DF90CF900C9450
:10048000FE01CF92DF92EF92FF920F931F93CF93D3
:10049000DF93EC01F62E642F8C810E9491018D81F7
:1004A0008F3F19F060E00E9491018F850F2D10E0C1
:1004B00084FF25C06E0187E0C80ED11CE12CF12C11
:1004C000B8010E2C02C0759567950A94E2F7617029
:1004D000F60181916F010E949101FFEFEF1AFF0A6F
:1004E00088E0E816F10461F7CE01DF91CF911F910A
:1004F0000F91FF90EF90DF90CF900C94FE01B80128
:1005000084E0759567958A95E1F7CE010E94140203
:100510006F2DCE01DF91CF911F910F91FF90EF9042
:10052000DF90CF900C94140241E00E94410281E0E0
:1005300090E0089540E00C944102EF92FF920F93F7
:100540001F93CF93DF93EC01623018F08F858860A2
:100550008F876B8B1C8A80E48D8B80E18E8B80E58E
:100560008F8B61E08C810E94C1018D818F3F19F0DA
:1005700061E00E94C10161E08E810E94C1017E01A3
:1005800087E0E80EF11C00E010E08F8584FD03C0D9
:1005900084E090E002C088E090E0081719074CF46E
:1005A00061E0F70181917F010E94C1010F5F1F4F40
:1005B000ECCF8BE39DE00197F1F760E08C810E9426
:1005C000910160E08E810E9491018D818F3F19F031
:1005D00060E00E9491016F8564FD1DC063E0CE0163
:1005E0000E9414020BE416E4C8010197F1F763E0DE
:1005F000CE010E941402C8010197F1F763E0CE0119
:100600000E94140283E592E00197F1F762E0CE01C7
:100610000E94140216C06062CE010E949A028BE40E
:1006200096E40197F1F76F856062CE010E949A020D
:1006300083E592E00197F1F76F856062CE010E9439
:100640009A026F856062CE010E949A0284E0888BD4
:100650006CE0CE010E949A0261E0CE010E949A02F3
:100660008BE39FE10197F1F782E0898B66E0CE0191
:10067000DF91CF911F910F91FF90EF900C949A0210
:10068000643008F063E090919601691710F06FEF05
:10069000690FE62FF0E0ED57FE4F9489682F690F40
:1006A000606883E891E00C949A02089580E090E0FD
:1006B0000895DC01ED91FD918081ED91FD91908196
:1006C000ED91FD916C9163708E2309F064609F231E
:1006D00009F06860E6E7F3E0E60FF11D65956595C2
:1006E0006D936D917D918D919D91099423C01AC058
:1006F00012C016C010C01EC009C014C013C006C06E
:1007000019C009C00DC007C00DC014C062507040B0
:10071000804090400BC0615070408040904006C0C7
:100720006E5F01C06F5F7F4F8F4F9F4F9E938E9381
:100730007E936E93089580913001909131010C94D5
:10074000590380912E0190912F010C945903CF935E
:10075000DF93EC018B85823028F4F894CE010E945F
:10076000590301C0F8946F81788589859A857894BA
:10077000DF91CF910895009769F0FC01019000206E
:10078000E9F73197AF01481B590BBC0183E891E0B1
:100790000C94140180E090E0089560E080E00E94F5
:1007A000400380E191E00E94BB0360E08FE00E9483
:1007B000400361E080E00E94400387E191E00E94F5
:1007C000BB0361E08FE00C9440030E94700D823007
:1007D000A1F0833029F570933101609330018BE9EA
:1007E00093E0909303018093020180916900837FDD
:1007F000846080936900E99A11C070932F0160931F
:100800002E0181EA93E09093010180930001809191
:1008100069008C7F816080936900E89A81E0089587
:1008200080E008950F931F93CF93DF93EC01062F81
:10083000142F62E0802F0E94C10162E0812F0E948C
:10084000C101802F90E0FC01E058FE4FE491F0E000
:10085000EE0FFF1FEA58FE4FA591B491B983A8830C
:10086000FC01EC56FE4F84918C83212F30E0F9017E
:10087000E058FE4F9491E92FF0E0EE0FFF1FEA5889
:10088000FE4F459154915B834A83F901EC56FE4F2C
:10089000E491ED831F82188619861A86EBE3FFE147
:1008A0003197F1F7EC91E82381E009F480E0FA0157
:1008B00020819D81922309F082608E83BE01802F6A
:1008C0000E94E7038B87BE01812F0E94E7032B85DF
:1008D00090E0820F911D8B87DF91CF911F910F9137
:1008E00008951F920F920FB60F9211242F933F93EA
:1008F0008F939F93AF93BF9380917F0190918001DD
:10090000A0918101B091820130917E0123E0230FFB
:100910002D3720F40196A11DB11D05C026E8230F37
:100920000296A11DB11D20937E0180937F019093BB
:100930008001A0938101B093820180917A0190910E
:100940007B01A0917C01B0917D010196A11DB11D9B
:1009500080937A0190937B01A0937C01B0937D01F9
:10096000BF91AF919F918F913F912F910F900FBEAB
:100970000F901F9018951F920F920FB60F9211248F
:100980002F933F934F935F936F937F938F939F9397
:10099000AF93BF93EF93FF93E0910201F0910301B6
:1009A0000995FF91EF91BF91AF919F918F917F91A9
:1009B0006F915F914F913F912F910F900FBE0F90CC
:1009C0001F9018951F920F920FB60F9211242F931C
:1009D0003F934F935F936F937F938F939F93AF93C7
:1009E000BF93EF93FF93E0910001F091010109950E
:1009F000FF91EF91BF91AF919F918F917F916F91F7
:100A00005F914F913F912F910F900FBE0F901F90CC
:100A10001895E3E8F1E01382128288E091E0918377
:100A200080838AE084838FEF858389E0868387E0F3
:100A3000878386E0808785E0818784E082871386CC
:100A4000148615861686178661E0CF010E949D02E6
:100A500043E163E08EE691E00E94120442E162E02D
:100A600082E691E00E94120441E160E186E591E0B6
:100A70000E9412048AE999E9A9E1BDE38093520139
:100A800090935301A0935401B093550180934E016C
:100A900090934F01A0935001B09351010895CF93CB
:100AA000DF9300D000D0CDB7DEB762E083E891E0FD
:100AB0000E949D0260E080E00E9440038EE191E090
:100AC0000E94BB032FEF87EA91E6215080409040BF
:100AD000E1F700C0000061E083E891E00E949A0223
:100AE0008BE39FE10197F1F70E94CD0362E080E183
:100AF0000E94C10162E081E10E94C10162E082E0E6
:100B00000E94C10162E083E00E94C10162E082E1D3
:100B10000E94C10162E083E10E94C10162E08CE0B9
:100B20000E94C10162E08BE00E94C10162E08EE0A0
:100B30000E94C10162E08DE00E94C10162E08FE08D
:100B40000E94C10161E08BE00E94910161E08CE0B4
:100B50000E94910161E08EE00E94910161E08DE0D0
:100B60000E94910161E08FE00E94910199E1892E3C
:100B70009CEF992EAA24AA94BA2C29E1422E2CEF9C
:100B8000522E66246A94762C8EE691E00E94A7038A
:100B900069837A838B839C83000082E691E00E94C4
:100BA000A7036B017C01000086E591E00E94A7038A
:100BB000000089819A81AB81BC8184159505A605C9
:100BC000B70531F4C814D904EA04FB0409F43BC1A5
:100BD00089819A81AB81BC8181389A4DAF4FBF4FDB
:100BE00044F480E895E2A0E0B0E089839A83AB8387
:100BF000BC8391E8C9169AEDD9069FEFE906F9067C
:100C000034F480E8C82E85E2D82EE12CF12C6981DD
:100C10007A818B819C810E94480C2B013C012091A0
:100C200052013091530140915401509155010E945D
:100C3000FD0C60934A0170934B0180934C0190939B
:100C40004D01C701B6010E94480C4B015C01209187
:100C50004E0130914F0140915001509151010E943D
:100C6000FD0C609346017093470180934801909377
:100C7000490160914A0170914B0180914C01909122
:100C80004D0120E030E044EB53E40E94F80C87FD76
:100C900024C0F89410927501109276011092770199
:100CA00010927801789460914A0170914B01809183
:100CB0004C0190914D01209152013091530140918E
:100CC0005401509155010E942D0B60934A0170937D
:100CD0004B0180934C0190934D0160914A017091BA
:100CE0004B0180914C0190914D0120E030E0A90131
:100CF0000E94990B87FF1AC0209152013091530135
:100D00004091540150915501C301B2010E94FD0C64
:100D100020E030E044EB53E40E942D0B60934A0145
:100D200070934B0180934C0190934D01609146016B
:100D300070914701809148019091490120E030E095
:100D400044EB53E40E94F80C87FD24C0F894109201
:100D5000690110926A0110926B0110926C017894F3
:100D6000609146017091470180914801909149013D
:100D700020914E0130914F0140915001509151010D
:100D80000E942D0B609346017093470180934801A8
:100D9000909349016091460170914701809148010B
:100DA0009091490120E030E0A9010E94990B87FF52
:100DB0001AC020914E0130914F0140915001509145
:100DC0005101C501B4010E94FD0C20E030E044EB6C
:100DD00053E40E942D0B609346017093470180936A
:100DE00048019093490160914A0170914B018091B3
:100DF0004C0190914D010EE311E023E047E00E9489
:100E0000A60860E086E00E944003C8010E94BB0380
:100E10000E9409016091460170914701809148014B
:100E20009091490106E311E023E047E00E94A60803
:100E300061E086E00E944003C8010E94BB030E945B
:100E40000901460157018BE00E946801892BB1F42A
:100E5000F894109275011092760110927701109219
:100E600078017894F8941092690110926A011092B6
:100E70006B0110926C0178940E94CD038CE00E946B
:100E80006801892BC1F4F8948AEB94E0A0E0B0E00B
:100E90008093750190937601A0937701B0937801C8
:100EA0007894F8941092690110926A0110926B0183
:100EB00010926C0178948EE00E946801892B09F0F1
:100EC0009DC0000086E591E00E94A7030E94480CA7
:100ED00020E030E040E05FE30E94FD0C6B017C010C
:100EE0000000209132013091330140913401509142
:100EF00035010E94990B882309F470C0AFE3BFE16C
:100F00001197F1F700C00000C0923201D092330176
:100F1000E0923401F092350120E030E044EB53E4FC
:100F2000C701B6010E94F80C87FD0EC0F89410921C
:100F30005D0110925E0110925F0110926001789441
:100F4000C12CD12C760113C020E030E0A901C701EB
:100F5000B6010E94990B87FF0AC020E030E044EB05
:100F600053E4C701B6010E942D0B6B017C01209157
:100F70005201309153014091540150915501C701E4
:100F8000B6010E949E0B0E94100CF89460937501AC
:100F90007093760180937701909378017894C09252
:100FA0004A01D0924B01E0924C01F0924D016091C8
:100FB0004A0170914B0180914C0190914D010EE3DB
:100FC00011E023E047E00E94A60860E086E00E946E
:100FD0004003C8010E94BB030E9409018FE00E94E8
:100FE0006801892B09F06ECFF89410925D01109280
:100FF0005E0110925F011092600178948DE00E9472
:101000006801892B29F049805A806B807C80BCCD97
:10101000000086E591E00E94A7030E94480C20E0B2
:1010200030E040E05FE30E94FD0C6B017C010000BA
:1010300020913201309133014091340150913501BA
:101040000E94990B882309F470C0EFE3FFE1319708
:10105000F1F700C00000C0923201D0923301E0925B
:101060003401F092350120E030E044EB53E4C70155
:10107000B6010E94F80C87FD0EC0F89410925D0135
:1010800010925E0110925F01109260017894C12C61
:10109000D12C760113C020E030E0A901C701B601D0
:1010A0000E94990B87FF0AC020E030E044EB53E434
:1010B000C701B6010E942D0B6B017C0120914E01EE
:1010C00030914F014091500150915101C701B6013B
:1010D0000E949E0B0E94100CF8946093690170931B
:1010E0006A0180936B0190936C017894C0924601E1
:1010F000D0924701E0924801F09249016091460187
:1011000070914701809148019091490106E311E0F7
:1011100023E047E00E94A60861E086E00E944003C9
:10112000C8010E94BB030E9409018FE00E94680170
:10113000892B09F06ECFF89410925D0110925E0138
:1011400010925F011092600178945DCFEF920F933F
:101150001F93CF93DF93E80147FD02C034E001C045
:1011600034E1E42F440FFF0BF7FF03C0F195E19545
:10117000F109E32E022F2E2FAE010E94C608CE01E8
:10118000DF91CF911F910F91EF9008954F925F9251
:101190006F927F929F92AF92BF92CF92DF92EF9227
:1011A000FF920F931F93CF93DF93CDB7DEB72997AD
:1011B0000FB6F894DEBF0FBECDBF6A01122FB02E5E
:1011C0002BE3201720F0FF24F394F00E02C0BCE3C1
:1011D000FB2E0F2D27E0AE014F5F5F4F0E94540A98
:1011E000AC018981982F9970913031F0E1FC06C0F3
:1011F000E0FE06C090E205C09DE203C09BE201C094
:1012000090E0EE2DE07183FF3CC0911102C083E0BD
:1012100001C084E0811718F4212F281B01C020E0B1
:10122000E1110BC0F601822F30E2882319F03193CF
:101230008150FBCFC20ED11C20E0992329F0D601AA
:101240009C93F60131966F01C6010396E2FE0AC037
:101250003EE4D6013C9341E411964C9311971296CB
:101260003C9306C03EE6F601308341E6418332837B
:10127000FC01322F40E2332309F442C04193315044
:10128000FACF82FF44C0911102C083E001C084E024
:10129000811718F4212F281B01C020E0E1110BC099
:1012A000F601822F30E2882319F031938150FBCF71
:1012B000C20ED11C20E0992329F0D6019C93F6019F
:1012C00031966F01C6010396E2FE0BC039E4D601E8
:1012D0003C933EE411963C93119736E412963C936E
:1012E00007C039E6F60130833EE6318336E63283C5
:1012F000FC01322F40E2332319F041933150FBCFF0
:10130000FC01E20FF11D10828EEF9FEFB7C0F1E0FC
:10131000911101C0F0E06F2F70E01416150624F44F
:101320009A012F5F3F4F02C021E030E0260F371FA8
:10133000BB2029F06B2D70E06F5F7F4F02C060E033
:1013400070E0260F371F612F70E0261737071CF457
:10135000121B212F01C020E03E2D387159F4D60117
:10136000322F60E2332319F06D933150FBCFC20E60
:10137000D11C20E0FF2331F0D6019C93B6016F5FB2
:101380007F4F6B01E1110BC0F601922F30E39923DF
:1013900019F031939150FBCFC20ED11C20E09F2D4C
:1013A000940F3A81782F7071A72E84FF03C03133D8
:1013B00009F49150191624F4993018F098E001C0FE
:1013C00091E0E42F852F57FF02C0E0E080E06E2F10
:1013D000782FE0E0F0E0AEE29A2E3A01691A710847
:1013E0002A01461A570A0B2D10E011950195110993
:1013F0006F3F8FEF780729F4D6019C92C6010196C2
:101400006C014617570784F0661677066CF47F0167
:10141000E40CF51CA1E0B0E0AC0FBD1FEA0EFB1E12
:10142000D7011196BC9002C090E3B92E61507109AA
:101430003196C60101967C016017710724F0D60130
:10144000BC926C01D5CF6417750741F4363320F494
:10145000353321F4A11002C081E3B82EF601B08229
:10146000F701822F90E2882319F091938150FBCFEE
:10147000F701E20FF11D108280E090E029960FB68F
:10148000F894DEBF0FBECDBFDF91CF911F910F91BA
:10149000FF90EF90DF90CF90BF90AF909F907F90A4
:1014A0006F905F904F900895283008F027E0332721
:1014B000DA01990F311D87FD916000966105710574
:1014C00039F432602E5F3D9330E32A95E1F70895B9
:1014D0009F3F30F080387105610509F03C5F3C5F4B
:1014E0003D93913008F08068911DDF93CF931F9357
:1014F0000F93FF92EF92192F987F9695E92F96956B
:101500009695E90FFF27EE53FF4F99273327EE24D7
:10151000FF24A701E70105900894079428F4360FEB
:10152000E71EF81E491F511D660F771F881F991F60
:101530000694A1F70590079428F4E70EF81E491FBA
:10154000561FC11D770F881F991F661F0694A1F7AC
:101550000590079428F4F80E491F561FC71FD11D88
:10156000880F991F661F771F0694A1F705900794AF
:1015700020F4490F561FC71FD81F990F661F771FEA
:10158000881F0694A9F784911095177041F0D6959D
:10159000C79557954795F794E7941A95C1F7E8E6EC
:1015A000F0E06894159015913591659195910590AD
:1015B0007FE27395E118F10A430B560BC90BD00972
:1015C000C0F7E10CF11E431F561FC91FD01D7EF44A
:1015D000703311F48A95E6CFE894015030F0080F8B
:1015E0000AF40027021708F4202F2395022F7A33DC
:1015F00028F079E37D932A95E9F710C07D932A9529
:1016000089F6069497956795379517951794E1187D
:10161000F10A430B560BC90BD00998F023957E9124
:1016200073957A3308F070E37C932013B8F77E91BA
:1016300070617D9330F0839571E37D9370E32A951B
:10164000E1F71124EF90FF900F911F91CF91DF915F
:10165000992787FD909508955058BB27AA270E9487
:10166000440B0C94BE0C0E94B00C38F00E94B70CD6
:1016700020F039F49F3F19F426F40C94AD0C0EF4CD
:10168000E095E7FB0C94A70CE92F0E94CF0C58F3D0
:10169000BA17620773078407950720F079F4A6F557
:1016A0000C94F10C0EF4E0950B2EBA2FA02D0B012B
:1016B000B90190010C01CA01A0011124FF27591B97
:1016C00099F0593F50F4503E68F11A16F040A22F9D
:1016D000232F342F4427585FF3CF4695379527950E
:1016E000A795F0405395C9F77EF41F16BA0B620B0D
:1016F000730B840BBAF09150A1F0FF0FBB1F661F54
:10170000771F881FC2F70EC0BA0F621F731F841F96
:1017100048F4879577956795B795F7959E3F08F0BC
:10172000B0CF9395880F08F09927EE0F979587957E
:1017300008950E94830C08F481E008950E94B20B82
:101740000C94BE0C0E94B70C58F00E94B00C40F0F4
:1017500029F45F3F29F00C94A70C51110C94F20C62
:101760000C94AD0C0E94CF0C68F39923B1F3552370
:1017700091F3951B550BBB27AA27621773078407A4
:1017800038F09F5F5F4F220F331F441FAA1FA9F33A
:1017900035D00E2E3AF0E0E832D091505040E69528
:1017A000001CCAF72BD0FE2F29D0660F771F881F89
:1017B000BB1F261737074807AB07B0E809F0BB0B7C
:1017C000802DBF01FF2793585F4F3AF09E3F510590
:1017D00078F00C94A70C0C94F20C5F3FE4F3983E65
:1017E000D4F3869577956795B795F7959F5FC9F779
:1017F000880F911D9695879597F90895E1E0660FFA
:10180000771F881FBB1F621773078407BA0720F072
:10181000621B730B840BBA0BEE1F88F7E0950895DB
:101820000E94170C6894B1110C94F20C08950E9458
:10183000D70C88F09F5798F0B92F9927B751B0F07F
:10184000E1F0660F771F881F991F1AF0BA95C9F744
:1018500014C0B13091F00E94F10CB1E008950C94E5
:10186000F10C672F782F8827B85F39F0B93FCCF398
:10187000869577956795B395D9F73EF490958095C1
:10188000709561957F4F8F4F9F4F0895E89409C0E1
:1018900097FB3EF490958095709561957F4F8F4FA3
:1018A0009F4F9923A9F0F92F96E9BB279395F695B9
:1018B000879577956795B795F111F8CFFAF4BB0F37
:1018C00011F460FF1BC06F5F7F4F8F4F9F4F16C09B
:1018D000882311F096E911C0772321F09EE8872F25
:1018E000762F05C0662371F096E8862F70E060E0E1
:1018F0002AF09A95660F771F881FDAF7880F96955A
:10190000879597F90895990F0008550FAA0BE0E8FD
:10191000FEEF16161706E807F907C0F012161306B1
:10192000E407F50798F0621B730B840B950B39F4F1
:101930000A2661F0232B242B252B21F408950A2657
:1019400009F4A140A6958FEF811D811D089597F997
:101950009F6780E870E060E008959FEF80EC089555
:1019600000240A941616170618060906089500247E
:101970000A9412161306140605060895092E0394F8
:10198000000C11F4882352F0BB0F40F4BF2B11F46C
:1019900060FF04C06F5F7F4F8F4F9F4F089557FDCB
:1019A0009058440F551F59F05F3F71F04795880FCD
:1019B00097FB991F61F09F3F79F087950895121664
:1019C00013061406551FF2CF4695F1DF08C0161610
:1019D00017061806991FF1CF8695710561050894C1
:1019E0000895E894BB2766277727CB0197F90895D8
:1019F0000E94830C08F48FEF08950E94100D0C9440
:101A0000BE0C0E94B00C38F00E94B70C20F0952359
:101A100011F00C94A70C0C94AD0C11240C94F20C46
:101A20000E94CF0C70F3959FC1F3950F50E0551FA6
:101A3000629FF001729FBB27F00DB11D639FAA2723
:101A4000F00DB11DAA1F649F6627B00DA11D661F72
:101A5000829F2227B00DA11D621F739FB00DA11D93
:101A6000621F839FA00D611D221F749F3327A00D4D
:101A7000611D231F849F600D211D822F762F6A2FE9
:101A800011249F5750409AF0F1F088234AF0EE0F4E
:101A9000FF1FBB1F661F771F881F91505040A9F77B
:101AA0009E3F510580F00C94A70C0C94F20C5F3F04
:101AB000E4F3983ED4F3869577956795B795F795B7
:101AC000E7959F5FC1F7FE2B880F911D969587952F
:101AD00097F90895EE0FFF1F0590F491E02D0994FA
:0E1AE00081E090E0F8940C94750DF894FFCF1F
:101AEE00FD01FD0100000000940214015603550390
:101AFE00416C74203D2000417A69203D2000202059
:0E1B0E0047616C617879506F696E7420200019
:107800000C94343C0C94513C0C94513C0C94513CE1
:107810000C94513C0C94513C0C94513C0C94513CB4
:107820000C94513C0C94513C0C94513C0C94513CA4
:107830000C94513C0C94513C0C94513C0C94513C94
:107840000C94513C0C94513C0C94513C0C94513C84
:107850000C94513C0C94513C0C94513C0C94513C74
:107860000C94513C0C94513C11241FBECFEFD8E036
:10787000DEBFCDBF11E0A0E0B1E0ECE9FFE702C060
:1078800005900D92A230B107D9F712E0A2E0B1E065
:1078900001C01D92AD30B107E1F70E942D3D0C945F
:1078A000CC3F0C94003C982F959595959595959582
:1078B000905D8F708A307CF0282F295A8091C0000B
:1078C00085FFFCCF9093C6008091C00085FFFCCF60
:1078D0002093C6000895282F205DF0CF982F809127
:1078E000C00085FFFCCF9093C6000895EF92FF92F1
:1078F0000F931F93EE24FF2487018091C00087FD22
:1079000017C00894E11CF11C011D111D81E4E8164B
:1079100082E4F8068FE0080780E0180770F3E09132
:107920000401F091050109958091C00087FFE9CF1E
:107930008091C6001F910F91FF90EF9008950E94D3
:10794000763C982F8091C00085FFFCCF9093C600B5
:1079500091362CF490330CF09053892F089597555D
:10796000892F08951F930E949F3C182F0E949F3CCF
:107970001295107F810F1F9108951F93182F882350
:1079800021F00E94763C1150E1F71F9108951F935A
:10799000182F0E94763C803249F0809103018F5F5E
:1079A000809303018530C1F01F9108958091C0003C
:1079B00085FFFCCF84E18093C6008091C00085FFE5
:1079C000FCCF1093C6008091C00085FFFCCF80E102
:1079D0008093C6001F910895E0910401F091050184
:1079E00009951F9108950E94763C803241F0809164
:1079F00003018F5F80930301853081F008958091AA
:107A0000C00085FFFCCF84E18093C6008091C00058
:107A100085FFFCCF80E18093C6000895E0910401CA
:107A2000F09105010995089540E951E08823A1F0FE
:107A30002D9A28EE33E0FA013197F1F721503040CA
:107A4000D1F72D9828EE33E0FA013197F1F7215064
:107A50003040D1F7815061F708953F924F925F9285
:107A60006F927F928F929F92AF92BF92CF92DF924E
:107A7000EF92FF920F931F93CF93DF93000080E16B
:107A80008093C4001092C50088E18093C10086E015
:107A90008093C2005098589A259A81E00E94143D24
:107AA00024E1F22E9EE1E92E85E9D82E0FE0C02ECA
:107AB00010E1B12EAA24A394B1E49B2EA6E58A2E50
:107AC000F2E57F2EE0E26E2E79E4572E63E5462E36
:107AD00050E5352E0E94763C8033B1F18133B9F107
:107AE000803409F46FC0813409F476C0823409F41B
:107AF00085C0853409F488C0803531F1823521F1A3
:107B0000813511F1853509F485C0863509F48DC0BC
:107B1000843609F496C0843709F403C1853709F423
:107B200072C1863709F466C0809103018F5F80932C
:107B30000301853079F6E0910401F0910501099582
:107B40000E94763C803351F60E94F33CC3CF0E94E2
:107B5000763C803249F78091C00085FFFCCFF092DF
:107B6000C6008091C00085FFFCCF9092C600809136
:107B7000C00085FFFCCF8092C6008091C00085FFC9
:107B8000FCCF7092C6008091C00085FFFCCF609250
:107B9000C6008091C00085FFFCCF5092C600809146
:107BA000C00085FFFCCF4092C6008091C00085FFD9
:107BB000FCCF3092C6008091C00085FFFCCFB09210
:107BC000C60088CF0E94763C863808F4BDCF0E945C
:107BD000763C0E94F33C7ECF0E94763C803809F4CC
:107BE0009CC0813809F40BC1823809F43CC1883942
:107BF00009F48FC080E00E94C73C6CCF84E10E94F2
:107C0000BD3C0E94F33C66CF85E00E94BD3C0E94D3
:107C1000F33C60CF0E94763C809306010E94763C44
:107C2000809307010E94F33C55CF0E94763C80333D
:107C300009F41DC183E00E94BD3C80E00E94C73C66
:107C400049CF0E94763C809309020E94763C809343
:107C5000080280910C028E7F80930C020E94763C79
:107C6000853409F415C18091080290910902892B8D
:107C700089F000E010E00E94763CF801E85FFE4FDA
:107C800080830F5F1F4F80910802909109020817AF
:107C9000190788F30E94763C803209F045CF809125
:107CA0000C0280FF01C16091060170910701660F0F
:107CB000771F7093070160930601A0910802B091AD
:107CC00009021097C9F0E8E0F1E09B01AD014E0F09
:107CD0005F1FF999FECF32BD21BD819180BDFA9A17
:107CE000F99A2F5F3F4FE417F50799F76A0F7B1F4B
:107CF00070930701609306018091C00085FFFCCF5F
:107D0000F092C6008091C00085FFFCCFB092C60003
:107D1000E1CE83E00E94C73CDDCE82E00E94C73CFA
:107D2000D9CE0E94763C809309020E94763C8093D3
:107D300008028091060190910701880F991F909386
:107D40000701809306010E94763C853409F4A6C0A1
:107D500080910C028E7F80930C020E94763C8032D0
:107D600009F0B8CE8091C00085FFFCCFF092C6002C
:107D7000609108027091090261157105B9F140E046
:107D800050E080910C02A82FA170B82FB27011C0E2
:107D9000BB2309F45CC0E0910601F0910701319624
:107DA000F0930701E09306014F5F5F4F46175707B7
:107DB000E8F4AA2369F3F999FECF209106013091E6
:107DC000070132BD21BDF89A90B58091C00085FFB2
:107DD000FCCF9093C6002F5F3F4F30930701209355
:107DE00006014F5F5F4F4617570718F38091C00099
:107DF00085FDE5CE8091C00085FFF8CFE0CE81E023
:107E00000E94C73C67CE0E94763C803209F08CCE3F
:107E10008091C00085FFFCCFF092C6008091C00029
:107E200085FFFCCFE092C6008091C00085FFFCCFAB
:107E3000D092C6008091C00085FFFCCFC092C600E2
:107E40008091C00085FFFCCFB092C60043CEE09188
:107E50000601F091070194918091C00085FFFCCF4D
:107E60009093C6009CCF80E10E94C73C33CE0E9415
:107E7000763C0E94763C182F0E94763C112309F430
:107E800083C0113009F484C08FE00E94C73C22CE29
:107E900080910C02816080930C02E5CE80910C02EF
:107EA000816080930C0259CF809107018823880F4D
:107EB000880B8A2180930B02809106019091070123
:107EC000880F991F90930701809306018091080203
:107ED00080FF09C080910802909109020196909359
:107EE000090280930802F894F999FECF1127E091D6
:107EF0000601F0910701C8E0D1E08091080290915D
:107F00000902103091F40091570001700130D9F34B
:107F100003E000935700E89500915700017001308D
:107F2000D9F301E100935700E89509901990009169
:107F3000570001700130D9F301E000935700E89534
:107F40001395103498F011270091570001700130FB
:107F5000D9F305E000935700E895009157000170B0
:107F60000130D9F301E100935700E895329602976A
:107F700009F0C7CF103011F00296E5CF112480919F
:107F8000C00085FFB9CEBCCE8EE10E94C73CA2CD19
:0C7F900085E90E94C73C9ECDF894FFCF0D
:027F9C00800063
:040000030000780081
:00000001FF
